{
  "txid": "0df34680b4a8b883b00148eaa81e17c44d7769484270dd8bf0d2720ac0077605",
  "hash": "57c5b00b56df81c393a6beca1b3575a09414ef76184adf8b60d26fc5c1cde9a3",
  "version": 2,
  "size": 280,
  "vsize": 199,
  "weight": 793,
  "locktime": 241895,
  "vin": [
    {
      "txid": "599b292c870c4463121a1e25195f0694938358d5d1a4f3590bdb3b8c3b358c0b",
      "vout": 0,
      "value": "2.4951386",
      "scriptSig": {
        "asm": "00148e442e37858cd5c80ae45194a66ca8c8a7070548",
        "hex": "1600148e442e37858cd5c80ae45194a66ca8c8a7070548"
      },
      "txinwitness": [
        "304402207f09e6243b381614055e8d4e407b1e59bfcfb3e640cbb466c599d37bdf66695702206887097b3f27e2d8ce685d43510ea5bf4f3e2131e47605d4de1c2a63a5785c8f01",
        "03732cfd81e72f4956463791eaacfd45ef521dd870f23471701399b05befd08d25"
      ],
      "sequence": 4294967294
    }
  ],
  "vout": [
    {
      "value64": 100000000,
      "value": 1.00000000,
      "n": 0,
      "scriptPubKey": {
        "asm": "OP_HASH160 bf21ae5a467a48f10e04cfd30aa2a575a113b66b OP_EQUAL",
        "hex": "a914bf21ae5a467a48f10e04cfd30aa2a575a113b66b87",
        "reqSigs": 1,
        "type": "scripthash",
        "addresses": [
          "2NAfqQ8ChefHYx448WX2243fZ9MoTtViFon"
        ]
      }
    },
    {
      "value64": 149509880,
      "value": 1.49509880,
      "n": 1,
      "scriptPubKey": {
        "asm": "OP_HASH160 ff1e50fda746ab540ffaa24abb8b9be333747d25 OP_EQUAL",
        "hex": "a914ff1e50fda746ab540ffaa24abb8b9be333747d2587",
        "reqSigs": 1,
        "type": "scripthash",
        "addresses": [
          "2NGWAccrksGM4TmefLN4qyW1kV7VpMngtBQ"
        ]
      }
    },
    {
      "value64": 0,
      "value": 0.00000000,
      "n": 2,
      "scriptPubKey": {
        "asm": "OP_RETURN 19 68656c6c6f20776f726c6420616761696e",
        "hex": "6a04130000001168656c6c6f20776f726c6420616761696e",
        "type": "nulldata"
      }
    }
  ],
  "hex": "020000000001010b8c353b8c3bdb0b59f3a4d1d558839394065f19251e1a1263440c872c299b5900000000171600148e442e37858cd5c80ae45194a66ca8c8a7070548feffffff0300e1f5050000000017a914bf21ae5a467a48f10e04cfd30aa2a575a113b66b87f856e9080000000017a914ff1e50fda746ab540ffaa24abb8b9be333747d25870000000000000000186a04130000001168656c6c6f20776f726c6420616761696e0247304402207f09e6243b381614055e8d4e407b1e59bfcfb3e640cbb466c599d37bdf66695702206887097b3f27e2d8ce685d43510ea5bf4f3e2131e47605d4de1c2a63a5785c8f012103732cfd81e72f4956463791eaacfd45ef521dd870f23471701399b05befd08d25e7b00300",
  "txfee": "0.0000398",
  "blockhash": "3b4d4ce84b378489371e1ac822f70ca5a54932f7f5fe9083b377b47826714a10",
  "confirmations": 321,
  "time": 1727774488,
  "blocktime": 1727774488
}
