{
  "txid": "838b6158772219d547df240b005c3572c9f15fba0f29be3a92b0e4326c2b33e0",
  "hash": "e6b5c04921f493d514ee9bd547da0ae1ec4d9077ed275c738ca09c2f1a31723d",
  "version": 2,
  "size": 203,
  "vsize": 176,
  "weight": 704,
  "locktime": 0,
  "vin": [
    {
      "coinbase": "0210270000",
      "sequence": 4294967295
    }
  ],
  "vout": [
    {
      "value64": 0,
      "value": 0.00000000,
      "n": 0,
      "scriptPubKey": {
        "asm": "OP_HASH160 ff1e50fda746ab540ffaa24abb8b9be333747d25 OP_EQUAL",
        "hex": "a914ff1e50fda746ab540ffaa24abb8b9be333747d2587",
        "reqSigs": 1,
        "type": "scripthash",
        "addresses": [
          "2NGWAccrksGM4TmefLN4qyW1kV7VpMngtBQ"
        ]
      }
    },
    {
      "value64": 2500000000,
      "value": 25.00000000,
      "n": 1,
      "scriptPubKey": {
        "asm": "OP_HASH160 873978589b720505dc96bdf05a37116aa9220bbe OP_EQUAL",
        "hex": "a914873978589b720505dc96bdf05a37116aa9220bbe87",
        "reqSigs": 1,
        "type": "scripthash",
        "addresses": [
          "2N5aE4GqA1AYQWmDWaHHRTg38cBBXQr3Q58"
        ]
      }
    },
    {
      "value64": 0,
      "value": 0.00000000,
      "n": 2,
      "scriptPubKey": {
        "asm": "OP_RETURN aa21a9ede2f61c3f71d1defd3fa999dfa36953755c690689799962b48bebd836974e8cf9",
        "hex": "6a24aa21a9ede2f61c3f71d1defd3fa999dfa36953755c690689799962b48bebd836974e8cf9",
        "type": "nulldata"
      }
    }
  ],
  "hex": "020000000001010000000000000000000000000000000000000000000000000000000000000000ffffffff050210270000ffffffff03000000000000000017a914ff1e50fda746ab540ffaa24abb8b9be333747d258700f902950000000017a914873978589b720505dc96bdf05a37116aa9220bbe870000000000000000266a24aa21a9ede2f61c3f71d1defd3fa999dfa36953755c690689799962b48bebd836974e8cf90120000000000000000000000000000000000000000000000000000000000000000000000000",
  "blockhash": "23bb612184a355f9492f526092b3e3aab6266365e117282de6f1f3a999a96c00",
  "confirmations": 231499,
  "time": 1531302789,
  "blocktime": 1531302789
}
